S02B0000433A2F616C746572612F31332E307370312F303630382F6E696F7370626C332F616C746572616D6FD0
S113400034004000848F4008740080000414A4101D
S11340107400C0000410E41874000001040C24218E
S1134020340040020436504A34008005043690B50A
S11340303A880D0004004001040640043700801A49
S11340401E01005006FD3F0037000013440000022B
S113405035000022350000203A9858613AB00C33FC
S11340602602402C04024029060500001500804960
S11340700401404A040040013A880D000600000093
S11340804400C0392601403806EC3F0004004000DB
S113409004108000040080013400C0010436D039CB
S11340A00410C03934008002041080521700003913
S11340B032C001310401C039170040393AB08632A8
S11340C032C041190401C0394400803126018030D6
S10B40D006F63F0006FF3F0065
S11340D800000000000000000000000000000000D4
S11340E800000000000000000000000000000000C4
S11340F800000000000000000000000000000000B4
S113410800000000000000000000000000000000A3
S9034000BC
